{"abi":[{"type":"constructor","inputs":[{"name":"_tokenA","type":"address","internalType":"contract IERC20"},{"name":"_tokenB","type":"address","internalType":"contract IERC20"},{"name":"_alice","type":"address","internalType":"address"},{"name":"_bob","type":"address","internalType":"address"},{"name":"_amountA","type":"uint256","internalType":"uint256"},{"name":"_amountB","type":"uint256","internalType":"uint256"}],"stateMutability":"nonpayable"},{"type":"function","name":"alice","inputs":[],"outputs":[{"name":"","type":"address","internalType":"address"}],"stateMutability":"view"},{"type":"function","name":"amountA","inputs":[],"outputs":[{"name":"","type":"uint256","internalType":"uint256"}],"stateMutability":"view"},{"type":"function","name":"amountB","inputs":[],"outputs":[{"name":"","type":"uint256","internalType":"uint256"}],"stateMutability":"view"},{"type":"function","name":"bob","inputs":[],"outputs":[{"name":"","type":"address","internalType":"address"}],"stateMutability":"view"},{"type":"function","name":"depositA","inputs":[],"outputs":[],"stateMutability":"nonpayable"},{"type":"function","name":"depositB","inputs":[],"outputs":[],"stateMutability":"nonpayable"},{"type":"function","name":"depositedA","inputs":[],"outputs":[{"name":"","type":"bool","internalType":"bool"}],"stateMutability":"view"},{"type":"function","name":"depositedB","inputs":[],"outputs":[{"name":"","type":"bool","internalType":"bool"}],"stateMutability":"view"},{"type":"function","name":"settle","inputs":[],"outputs":[],"stateMutability":"nonpayable"},{"type":"function","name":"settled","inputs":[],"outputs":[{"name":"","type":"bool","internalType":"bool"}],"stateMutability":"view"},{"type":"function","name":"tokenA","inputs":[],"outputs":[{"name":"","type":"address","internalType":"contract IERC20"}],"stateMutability":"view"},{"type":"function","name":"tokenB","inputs":[],"outputs":[{"name":"","type":"address","internalType":"contract IERC20"}],"stateMutability":"view"},{"type":"event","name":"DepositedA","inputs":[{"name":"from","type":"address","indexed":true,"internalType":"address"},{"name":"amount","type":"uint256","indexed":false,"internalType":"uint256"}],"anonymous":false},{"type":"event","name":"DepositedB","inputs":[{"name":"from","type":"address","indexed":true,"internalType":"address"},{"name":"amount","type":"uint256","indexed":false,"internalType":"uint256"}],"anonymous":false},{"type":"event","name":"Settled","inputs":[{"name":"alice","type":"address","indexed":true,"internalType":"address"},{"name":"bob","type":"address","indexed":true,"internalType":"address"}],"anonymous":false},{"type":"error","name":"AlreadyDeposited","inputs":[]},{"type":"error","name":"AlreadySettled","inputs":[]},{"type":"error","name":"NotReady","inputs":[]},{"type":"error","name":"OnlyAlice","inputs":[]},{"type":"error","name":"OnlyBob","inputs":[]}],"bytecode":{"object":"0x610140604052348015610010575f80fd5b50604051610b3e380380610b3e83398101604081905261002f91610076565b6001600160a01b0395861660805293851660a05291841660c05290921660e05261010091909152610120526100e5565b6001600160a01b0381168114610073575f80fd5b50565b5f805f805f8060c0878903121561008b575f80fd5b86516100968161005f565b60208801519096506100a78161005f565b60408801519095506100b88161005f565b60608801519094506100c98161005f565b809350506080870151915060a087015190509295509295509295565b60805160a05160c05160e05161010051610120516109876101b75f395f818161013d015281816103db015281816107ec01526108fd01525f8181610108015281816102ce015281816105df01526106f001525f81816101ca015281816102a6015281816104a201528181610733015281816107be01526108b201525f8181610201015281816103b3015281816104cc0152818161052d015281816105b101526106a501525f818161018501528181610401015261081201525f818160ba015281816102f4015261060501526109875ff3fe608060405234801561000f575f80fd5b50600436106100b1575f3560e01c80638f7758391161006e5780638f775839146101a7578063afadb9ab146101b9578063c09cec77146101c5578063c3fcd42a146101ec578063f2daab00146101f4578063fb47e3a2146101fc575f80fd5b80630fc63d10146100b557806311da60b4146100f9578063156dcbf0146101035780632efe91ef146101385780633d86517f1461015f5780635f64b55b14610180575b5f80fd5b6100dc7f000000000000000000000000000000000000000000000000000000000000000081565b6040516001600160a01b0390911681526020015b60405180910390f35b610101610223565b005b61012a7f000000000000000000000000000000000000000000000000000000000000000081565b6040519081526020016100f0565b61012a7f000000000000000000000000000000000000000000000000000000000000000081565b5f5461017090610100900460ff1681565b60405190151581526020016100f0565b6100dc7f000000000000000000000000000000000000000000000000000000000000000081565b5f546101709062010000900460ff1681565b5f546101709060ff1681565b6100dc7f000000000000000000000000000000000000000000000000000000000000000081565b610101610522565b610101610728565b6100dc7f000000000000000000000000000000000000000000000000000000000000000081565b5f5462010000900460ff161561024b5760405162560ff960e81b815260040160405180910390fd5b5f5460ff16801561026257505f54610100900460ff165b61027f57604051634a44555360e11b815260040160405180910390fd5b5f805462ff000019166201000017905560405163a9059cbb60e01b81526001600160a01b037f0000000000000000000000000000000000000000000000000000000000000000811660048301527f000000000000000000000000000000000000000000000000000000000000000060248301527f0000000000000000000000000000000000000000000000000000000000000000169063a9059cbb906044016020604051808303815f875af115801561033a573d5f803e3d5ffd5b505050506040513d601f19601f8201168201806040525081019061035e919061092b565b61039c5760405162461bcd60e51b8152600401610393906020808252600490820152637061794160e01b604082015260600190565b60405180910390fd5b60405163a9059cbb60e01b81526001600160a01b037f0000000000000000000000000000000000000000000000000000000000000000811660048301527f000000000000000000000000000000000000000000000000000000000000000060248301527f0000000000000000000000000000000000000000000000000000000000000000169063a9059cbb906044016020604051808303815f875af1158015610447573d5f803e3d5ffd5b505050506040513d601f19601f8201168201806040525081019061046b919061092b565b6104a05760405162461bcd60e51b8152600401610393906020808252600490820152633830bca160e11b604082015260600190565b7f00000000000000000000000000000000000000000000000000000000000000006001600160a01b03167f00000000000000000000000000000000000000000000000000000000000000006001600160a01b03167f3352c33cf4ae7f0a850208dc1ce7e1462af666d38c52ae55a504c89bd6d26c3060405160405180910390a3565b336001600160a01b037f0000000000000000000000000000000000000000000000000000000000000000161461056b576040516366b2aae960e01b815260040160405180910390fd5b5f5460ff161561058e5760405163d5a8211560e01b815260040160405180910390fd5b5f805460ff191660011790556040516323b872dd60e01b81526001600160a01b037f0000000000000000000000000000000000000000000000000000000000000000811660048301523060248301527f000000000000000000000000000000000000000000000000000000000000000060448301527f000000000000000000000000000000000000000000000000000000000000000016906323b872dd906064016020604051808303815f875af115801561064b573d5f803e3d5ffd5b505050506040513d601f19601f8201168201806040525081019061066f919061092b565b6106a35760405162461bcd60e51b8152602060048201526005602482015264786665724160d81b6044820152606401610393565b7f00000000000000000000000000000000000000000000000000000000000000006001600160a01b03167fbd784127499a06a1ae61a305f7d22de59bec00fc73d2783a29ac8f674c185e187f000000000000000000000000000000000000000000000000000000000000000060405161071e91815260200190565b60405180910390a2565b336001600160a01b037f0000000000000000000000000000000000000000000000000000000000000000161461077157604051631a59513160e01b815260040160405180910390fd5b5f54610100900460ff16156107995760405163d5a8211560e01b815260040160405180910390fd5b5f805461ff0019166101001790556040516323b872dd60e01b81526001600160a01b037f0000000000000000000000000000000000000000000000000000000000000000811660048301523060248301527f000000000000000000000000000000000000000000000000000000000000000060448301527f000000000000000000000000000000000000000000000000000000000000000016906323b872dd906064016020604051808303815f875af1158015610858573d5f803e3d5ffd5b505050506040513d601f19601f8201168201806040525081019061087c919061092b565b6108b05760405162461bcd60e51b81526020600482015260056024820152643c3332b92160d91b6044820152606401610393565b7f00000000000000000000000000000000000000000000000000000000000000006001600160a01b03167f9387ddce0026dd3740d8632b66ba6657d6a3942c56eda67598c86721beaf09317f000000000000000000000000000000000000000000000000000000000000000060405161071e91815260200190565b5f6020828403121561093b575f80fd5b8151801515811461094a575f80fd5b939250505056fea2646970667358221220a9a736eafa5caeaa995baa8c247b99d7c8a1ec2d3e47f40521dc79e812f4b4f564736f6c63430008180033","linkReferences":{}},"methodIdentifiers":{"alice()":"fb47e3a2","amountA()":"156dcbf0","amountB()":"2efe91ef","bob()":"c09cec77","depositA()":"c3fcd42a","depositB()":"f2daab00","depositedA()":"afadb9ab","depositedB()":"3d86517f","settle()":"11da60b4","settled()":"8f775839","tokenA()":"0fc63d10","tokenB()":"5f64b55b"},"id":20}